:1000000001308A00F9290000FF00030E8301A500DA
:100010007F08A4000A08AB008A01A40E0408A60009
:100020002008A7002108A8002208A9002308AA0088
:10003000831383128B1E1E280B192F282608840079
:100040002708A0002808A1002908A2002A08A30068
:100050002B088A00250E8300FF0E7F0E09008A11EF
:10006000A928B401B3010230B2004C30B10008003D
:100070003C08F43E031898280C3E992883168516F0
:1000800000308312851A0130A10098289828831621
:10009000051600308312051A0130A100982898280F
:1000A000831685150030831285190130A100982828
:1000B0009828831687150030831287190130A10014
:1000C00098289828831605140030831205180130EB
:1000D000A10098289828831685140030831285186B
:1000E0000130A10098289828831605150030831246
:1000F00005190130A10098289828831607140030AC
:10010000831207180130A1009828982883168714B5
:100110000030831287180130A10098289828831690
:1001200007150030831207190130A100982898287C
:1001300008000A108A100A1182073E284728502812
:1001400098289828592862286B2874287D288628A2
:100150008F28FF30AD07031CAE07031CAF07031C3D
:10016000B007AD08031DC428AE08031DC428AF089E
:10017000031DC428B008031DC428B001AF01AE019F
:100180003230AD000130B500FF30B107031CB207BB
:10019000031CB307031CB407B108031DDB28B20816
:1001A000031DDB28B308031DDB28B408031DDB286F
:1001B00031200130B600BC013820A108031DE5281C
:1001C0003708063C031CE528B70A0030A1000B11D4
:1001D0008A111E283A08F43E031865290C3E662948
:1001E000BB080319F8288316851283128516FC288C
:1001F00083168512831285126529BB080319052908
:100200008316051283120516092983160512831217
:1002100005126529BB080319122983168711831259
:100220008715162983168711831287116529BB0844
:1002300003191F2983160510831205142329831619
:100240000510831205106529BB0803192C29831694
:10025000851083128514302983168510831285102A
:100260006529BB0803193929831605118312051561
:100270003D2983160511831205116529BB08031951
:10028000462983160710831207144A29831607107C
:10029000831207106529BB08031953298316871099
:1002A00083128714572983168710831287106529B4
:1002B000BB080319602983160711831207156429E7
:1002C0008316071183120711652908000A148A1082
:1002D0000A118207F028FD286529652965290A2960
:1002E0001729242931293E294B2958290130BA00E0
:1002F000BB01EA200530BA00BB01EA200630BA0093
:10030000BB01EA200730BA00BB01EA200830BA007E
:10031000BB01EA200930BA00BB01EA200A30BA006A
:10032000BB01EA200B30BA00BB01EA208A11292A5E
:100330003120B601B60803199A2908000130BA0025
:10034000BB00EA2098210530BA000130BB00EA204A
:1003500098210630BA000130BB00EA20982107300E
:10036000BA000130BB00EA2098210830BA00013001
:10037000BB00EA2098210930BA000130BB00EA2016
:1003800098210A30BA000130BB00EA2098210B30D6
:10039000BA000130BB00EA2098218A11372A0130C7
:1003A000BA00BB01EA2098210530BA00BB01EA205F
:1003B00098210630BA00BB01EA2098210730BA0024
:1003C000BB01EA2098210830BA00BB01EA2098213D
:1003D0000930BA00BB01EA2098210A30BA00BB01FB
:1003E000EA2098210B30BA00BB01EA2098218A113B
:1003F0003B2A840183131F308305713083168F00DD
:100400000F088312B001AF01AE013230AD00B4016C
:10041000B3010230B2004C30B100B501B601B701F2
:100420001F1300308316910083129A010730990040
:10043000B901B80181010830980083160108C0395C
:100440000538810064008C1683128B16C0308B0433
:1004500076293708073C031D472AB808031D382AA8
:10046000B908031D382AB9010130B8009E293B2A7A
:10047000B901B801CF29AC018B1BAC178B13BC01A0
:100480003820AC1B8B17A10803193B2AB701292A76
:02049000630007
:02400E00C435B7
:00000001FF
;PIC16F688
;CRC=1FF2  CREATED="19-Nov-16 18:05"
